:040000000CEF00F011
:10000800FACF01F0FBCF02F0E9CF03F009ED0CF0D5
:0400180016EF0FF0E0
:1010000000E0FC2BFD76FD00008A02D50220030AD9
:101010000D4B77616E746C656E20415053433132D5
:1010200039392073696D706C65206375727665203F
:10103000666F6C6C6F776572202D2D2077697468F0
:10104000206572726F7220636F6465730A0D0020F1
:101050003C72657365743E20003C53544B46554CBE
:101060003E003C57445420544F3E005C3C4C564498
:101070003E003C424F523E003C504F523E0000006A
:101080002A501F0B0009D8B494D12A501F0B1F0AF5
:10109000D8B48FD129502810D8B48BD148EC0FF098
:1010A00088D12250040A2310D8B4B8D1000E1F6E84
:1010B000040E1E6ED6EC0AF0B1D121502010D8A437
:1010C000ADD12250040A2310D8B4A8D1000E1F6E4F
:1010D000040E1E6ED6EC0AF0A1D12250040A231091
:1010E000D8B49CD1000E1F6E040E1E6ED6EC0AF012
:1010F00095D12250040A2310D8B490D1000E1F6E4F
:10110000040E1E6ED6EC0AF089D121502010D8A40E
:1011100085D12250040A2310D8B407D0000E1F6EC8
:10112000040E1E6ED6EC0AF079D120042110D8A44A
:1011300075D17CEC0CF072D121502010D8A411D0C4
:101140002250040A2310D8B407D0000E1F6E040EDC
:101150001E6ED6EC0AF005D020042110D8B47CEC29
:101160000CF0000E256E010E46D021502010D8A4A0
:1011700011D02250040A2310D8B407D0000E1F6EDD
:10118000040E1E6ED6EC0AF005D020042110D8B44F
:101190007CEC0CF0000E256E030E2DD0215020109B
:1011A000D8A4DFD72250040A2310D8B407D0000EE9
:1011B0001F6E040E1E6ED6EC0AF0D3D72004211049
:1011C000D8B47CEC0CF0CDD721502010D8A4E2D7B5
:1011D0002250040A2310D8B407D0000E1F6E040E4C
:1011E0001E6ED6EC0AF0D6D720042110D8A4D2D790
:1011F0007CEC0CF0CFD7246E11D121502010D8A454
:10120000C9D72250040A2310D8B407D0000E1F6E8D
:10121000040E1E6ED6EC0AF0BDD720042110D8B4FF
:101220007CEC0CF0B7D721502010D8A49AD72250CC
:10123000040A2310D8B407D0000E1F6E040E1E6ED1
:10124000D6EC0AF08ED720042110D8B47CEC0CF038
:1012500088D72250050A2310D8B4E0D0000E1F6EA4
:10126000050E1E6ED6EC0AF0D9D02250020A2310C9
:10127000D8B4D4D0000E1F6E020E1E6ED6EC0AF04B
:10128000CDD02250060A2310D8B4C8D0000E1F6E4D
:10129000060E1E6ED6EC0AF0C1D022042310D8B47C
:1012A000BDD0000E1F6E010E1E6ED6EC0AF0B6D039
:1012B00028042910D8B40DD02250040A2310D8B421
:1012C00006D0000E1F6E040E1E6ED6EC0AF0DFEC88
:1012D0000EF028042910D8A426D02450020A251084
:1012E000D8B421D028EC0FF0200E0F5C4E0E105811
:1012F000D8B019D024042510D8A406D0000E1F6E33
:10130000000E1E6ED6EC0AF02450030A2510D8A455
:1013100006D0000E1F6E070E1E6ED6EC0AF0000EF1
:10132000256E020E246E28042910D8A477D028EC4C
:101330000FF0B90E0F5C880E1058D8A06FD0000EB9
:101340001F6E000E1E6ED6EC0AF0F2A4FED728EC3B
:101350000FF0C80E0F5C320E1058D8A0F6D748EC2C
:101360000FF05CD028042910D8B40DD02250040A04
:101370002310D8B406D0000E1F6E040E1E6ED6ECDD
:101380000AF0DFEC0EF028042910D8A40FD028ECC6
:101390000FF0980E0F5C3D0E1058D8A007D051ECFE
:1013A0000EF002D05AEC0FF02AB4FCD75AEC0FF032
:1013B00035D02A501F0B000AD8B47AD7010AD8B406
:1013C00060D7030AD8B445D7060AD8B46AD6010A4A
:1013D000D8B49BD6030AD8B48CD6010AD8B4C5D6E3
:1013E0000F0AD8B442D7040AD8B477D6030AD8B4BF
:1013F000EBD61F0AD8B451D7040AD8B45ED6030A74
:10140000D8B4FBD60B0AD8B497D6010AD8B40BD7F8
:10141000030AD8B4C3D6010AD8B4A4D712001A6EEE
:10142000010E1B6E1550020D010EF324F66E100E08
:10143000F420F76EF86A000EF8220900F5CF18F0D4
:101440000900F5CF19F0165018241C6E17501920FA
:101450001D6E1D50800AF36E800EF35C000ED8B432
:101460001C5CD8B006D0000E1B6E1C6C1D1ED8B0C4
:101470001D2A1D50800A7D0F210ED8B41C5CD8A0F7
:1014800004D0030E1D6E200E1C6E1A6616D01CC0F2
:101490000FF01DC010F04CEC0DF01B6602D08290D6
:1014A00001D0828082B002D0010E01D0000E186EF1
:1014B000184684501818FD0B14D01CC00FF01DC026
:1014C00010F069EC0DF01B6602D0829A01D0828A7E
:1014D00082BA02D0010E01D0000E186E8450181886
:1014E000FE0B1818846E1200870E64EC0EF011507B
:1014F000265C12502758D8B002D0010E01D0000E41
:10150000146E143A2A501418EF0B14182A6E8F0E0A
:1015100064EC0EF01150265C12502758D8B002D05F
:10152000010E01D0000E146E1446144614462A50C3
:101530001418F70B14182A6E970E64EC0EF0115065
:10154000265C12502758D8B002D0010E01D0000EF0
:10155000146E144614462A501418FB0B14182A6EE5
:101560009F0E64EC0EF01150265C12502758D8B034
:1015700002D0010E01D0000E146E14462A50141829
:10158000FD0B14182A6EA70E64EC0EF01150265CA9
:1015900012502758D8B002D0010E01D0000E146EA0
:1015A0002A501418FE0B14182A6E12001F501E1019
:1015B000D8A406D03EEC0EF0000E236E000E226E74
:1015C0001E041F10D8A406D018EC0EF0000E236ED7
:1015D000010E226E1E50020A1F10D8A406D0DFECA6
:1015E0000DF0000E236E020E226E1E50030A1F1015
:1015F000D8A406D051EC0EF0000E236E030E226E1E
:101600001E50040A1F10D8A406D0F2EC0DF0000EF4
:10161000236E040E226E1E50050A1F10D8A406D099
:10162000CCEC0DF0000E236E050E226E1E50060A45
:101630001F10D8A406D005EC0EF0000E236E060E87
:10164000226E1E50070A1F10D8A406D02BEC0EF0F5
:10165000000E236E070E226E1200000E156E000E95
:10166000166E000E176E000E186E000E196E000E2C
:101670001A6E000E1B6E000E1C6E69EC0FF0100E41
:10168000116E780E106EA3EC0DF08390838283842C
:10169000838683882CD004001A50750A300ED8B483
:1016A00019181B101C10D8A411D0000E196E000EB2
:1016B0001A6E000E1B6E000E1C6E010E1526000E1B
:1016C000162217221822839083820BD01A503A0ACE
:1016D000980ED8B419181B101C10D8A402D08380FF
:1016E0008392010E1926000E1A221B221C220A0EBA
:1016F000155C000E1658000E1758000E1858D8B07A
:101700001200C9D72A902A922A942A962A98D08E13
:10171000F29EF29CB8EC0DF06FEC0FF0000E106E24
:10172000100E0F6E3C0E48EC0CF078EC0FF0000E33
:10173000836E2CEC0DF041EC0FF075EC0FF072ECB9
:101740000FF06CEC0FF0EBEC0EF00C0E0F6E0A0EBF
:10175000106EA70EABEC0CF0829A8490829084926B
:10176000060ED1EC0EF0C70E31EC0FF0C70E86EC72
:101770000DF0000E106E000E0F6E69EC0DF0000EF5
:10178000106E000E0F6E4CEC0DF0000E276E780EF2
:10179000266E12002AB802D0010E01D0000E0F6E84
:1017A00083500F18FE0B0F18836E2AB602D0010E5D
:1017B00001D0000E0F6E0F4683500F18FD0B0F184F
:1017C000836E2AB402D0010E01D0000E0F6E0F46B8
:1017D0000F4683500F18FB0B0F18836E2AB202D0EE
:1017E000010E01D0000E0F6E0F460F460F468350BC
:1017F0000F18F70B0F18836E2AB002D0010E01D01C
:10180000000E0F6E0F3A83500F18EF0B0F18836EF8
:1018100012000600EACF04F0E1CF05F0E2CF06F0B7
:10182000D9CF07F0DACF08F0F3CF09F0F4CF0AF000
:10183000F6CF0BF0F7CF0CF0F8CF0DF0F5CF0EF0A0
:10184000A1949268936894689568030E966E010E51
:101850002B6EA094D2980EC0F5FF0DC0F8FF0CC0FF
:10186000F7FF0BC0F6FF0AC0F4FF09C0F3FF08C082
:10187000DAFF07C0D9FF06C0E2FF05C0E1FF04C0E0
:10188000EAFF03C0E9FF02C0FBFF01C0FAFF11003D
:10189000146E000EAC6E000EAB6E14B0AC8814A2C9
:1018A00002D0AC8CAB8C14B4AC8E14A602D0AB8836
:1018B00001D0AB8A14B8AC849E9814BAAB8614AC31
:1018C00002D09D8A01D09D9A9E9A14AE02D09D8826
:1018D00001D09D980FC0AFFF10C011F011C012F0E1
:1018E000136A1250B06EAC8AAB8E949C948EACB8D6
:1018F000ACBE01D0948C12002AB82AB614D02AA407
:1019000012D0000E1F6E010E1E6ED6EC0AF02AB425
:10191000FED7000E1F6E010E1E6ED6EC0AF02AA432
:10192000FED764EC0FF02AB82AB614D02AA412D03D
:10193000000E1F6E060E1E6ED6EC0AF02AB4FED7FD
:10194000000E1F6E060E1E6ED6EC0AF02AA4FED7FD
:1019500064EC0FF01200136E000EC26E000EC06E2B
:10196000D8900F303C0BC26E0FC011F0113AF00E40
:101970001116300E111610500F0B1110C16E13C03E
:1019800011F0D8901136D8901136380E111613C0B8
:1019900012F0123A0F0E1216070E12161350800B89
:1019A00012101110C06E0FAE03D09E9C9D8CF28C55
:1019B000C2801200000E0F6E000E106E000E116E2F
:1019C000000E126E04001050750A300ED8B40F18B5
:1019D00011101210D8A40BD0000E0F6E000E106E56
:1019E000000E116E000E126E839083820BD0105089
:1019F0003A0A980ED8B40F1811101210D8A402D0B9
:101A000083808392010E0F26000E102211221222D3
:101A1000D9D782EC0BF0100E116E0F0E106EA3ECE6
:101A20000DF00400000E276EF00E266E060E86ECFA
:101A30000EF0000E256E020E246E74EC0AF0CAEC55
:101A40000BF040EC08F004007DEC0FF00009D8B476
:101A5000F4D796EC0EF0F1D70CEC0FF00009D8B4E7
:101A600003D02DEC0BF017D03AEC0FF00009D8B4EE
:101A700003D076EC0EF00FD002EC0FF00009D8B4D2
:101A800003D0B5EC0EF007D0FCAE03D0A6EC0EF000
:101A900002D0C3EC0EF012000FC011F010C012F013
:101AA000060ED89011361236E82EFBD711C013F06F
:101AB00012C014F014C0BBFF13C011F0D890113243
:101AC000D8901132300E1116BA50CF0B1110BA6ED9
:101AD00012000FC011F010C012F0060ED89011368F
:101AE0001236E82EFBD711C013F012C014F014C048
:101AF000BEFF13C011F0D8901132D8901132300EC1
:101B00001116BD50CF0B1110BD6E1200106E0C0ED1
:101B1000BA6E050EF66E000EF76E300EF86E080007
:101B2000F5CF0FF00FA002D0116802D0000E116E99
:101B30001150D8B402D0949201D09396CA9410C098
:101B4000CBFFCA841200000E136E120E126E03D069
:101B5000145054EC0FF010C0F6FF11C0F7FF104AFC
:101B6000112AF86A0800F5CF14F01466F1D71200B4
:101B7000D38CD38AD3889B8C000E106E000E0F6E10
:101B80001050800A7F0FF40ED8B40F5CD8B003D089
:101B90000F4A102AF5D71200040E156E000E176EAC
:101BA000000E166E000E0FEC0AF0030E156E000EFE
:101BB000176E000E166E010E0FEC0AF01200030EE7
:101BC000156E000E176E000E166E000E0FEC0AF06A
:101BD000040E156E000E176E000E166E010E0FEC41
:101BE0000AF01200040E156E000E176E4B0E166EE4
:101BF000000E0FEC0AF0040E156E000E176E000EAC
:101C0000166E010E0FEC0AF01200040E156E000E97
:101C1000176E000E166E000E0FEC0AF0020E156E17
:101C2000000E176E000E166E010E0FEC0AF0120079
:101C3000020E156E000E176E000E166E000E0FECE3
:101C40000AF0040E156E000E176E000E166E010ED1
:101C50000FEC0AF01200040E156E000E176E000E47
:101C6000166E000E0FEC0AF0020E156E000E176EC7
:101C7000000E166E010E0FEC0AF01200020E156E29
:101C8000000E176E000E166E000E0FEC0AF0040E1A
:101C9000156E000E176E000E166E010E0FEC0AF098
:101CA0001200030E156E000E176E000E166E000E5B
:101CB0000FEC0AF0030E156E000E176E000E166E76
:101CC000010E0FEC0AF01200136E1350F7EC0EF039
:101CD0007BEC0FF04EEC0FF00009D8A4FBD75FECC3
:101CE0000FF00FC011F010C012F0120069EC0FF0ED
:101CF000100E116E720E106EA3EC0DF083808382B5
:101D0000838483868398DAEC0CF012000F6E0F50F8
:101D10007F0BD56E000ED76E000ED66EF2940FAE0E
:101D200002D0F28A01D0F29AD58E1200100E116EF6
:101D30006B0E106EA3EC0DF078EC0FF083908382A5
:101D4000838483968388DAEC0CF01200FC9E100EDC
:101D5000116E590E106EA3EC0DF083908382839464
:101D600083868398DAEC0CF01200100E116E620E6E
:101D7000106EA3EC0DF08390838283948386838816
:101D8000DAEC0CF01200100E116E4F0E106EA3EC78
:101D90000DF083908382839483968398DAEC0CF021
:101DA00012000F6E0F50FB0BCA6E000ECC6E9E928F
:101DB0000FAE02D09D8201D09D92CA841200F2948F
:101DC000000E106E000E0F6E1FEC0FF0000E296E4D
:101DD000010E286E1200D08ED288A284D29ED286A6
:101DE000D284D282D290A194A084F28E1200106E7E
:101DF000C2CF0FF0C30E0F16D89010303C0B0F104F
:101E0000C26E1200D0B2D0A405D0D0B0D0B602D0ED
:101E1000010E01D0000E1200D0A2D0A405D0D0A097
:101E2000D0A602D0010E01D0000E120000EE20F06C
:101E30000C0EEE6AE806FDE1000109EF0DF00FC09F
:101E400011F010C012F012C0D7FF11C0D6FF12005F
:101E5000D6CF11F0D7CF12F011C00FF012C010F092
:101E600012000F6E0C0EBD129494CA940FC0CBFFDB
:101E7000CA841200D0A0D0A202D0010E01D0000E60
:101E8000120094909492949494969498949A120038
:101E9000F294000E296E000E286E1200C2A202D02B
:101EA000010E01D0000E12000F6E9EA8FED70FC0CB
:101EB000ADFF120074EC0AF0CAEC0BF01200C45033
:101EC000106EC3500F6E1200000E216E000E206EB9
:101ED0001200D082D0801200000E966E1200949CE8
:101EE000948E1200C00E936E1200EF0E926E1200CE
:0E1EF000600E956E1200C28212002B5012007E
:020000040020DA
:08000000FFFFFFFFFFFFFFFF00
:020000040030CA
:0E000000FF080306FF0381FF0FC00FE00F4053
:00000001FF
