:040000000CEF00F011
:10000800FACF01F0FBCF02F0E9CF03F068ED0CF076
:0400180079EF0FF07D
:1010000000E0FC2BFD76FD00008A02D50220030AD9
:101010000D4B77616E746C656E20415053433132D5
:1010200039392073696D706C65206375727665203F
:10103000666F6C6C6F776572202D2D2077697468F0
:10104000206572726F7220636F6465730A0D0020F1
:101050003C72657365743E20003C53544B46554CBE
:101060003E003C57445420544F3E005C3C4C564498
:101070003E003C424F523E003C504F523E0000006A
:101080002C501F0B0009D8B4DED12C501F0B1F0AA7
:10109000D8B4D9D12B502A10D8B4D5D1ABEC0FF09D
:1010A000D2D12450040A2510D8B40BD2000E1F6EE2
:1010B000040E1E6E35EC0BF004D223502210D8A47F
:1010C00000D22450040A2510D8B4FBD1000E1F6EA4
:1010D000040E1E6E35EC0BF0F4D12450040A2510DA
:1010E000D8B4EFD1000E1F6E040E1E6E35EC0BF05F
:1010F000E8D12450040A2510D8B4E3D1000E1F6EA5
:10110000040E1E6E35EC0BF0DCD123502210D8A457
:10111000D8D12450040A2510D8B407D0000E1F6E71
:10112000040E1E6E35EC0BF0CCD122042310D8A493
:10113000C8D1DBEC0CF0C5D123502210D8A411D0BB
:101140002450040A2510D8B407D0000E1F6E040ED8
:101150001E6E35EC0BF005D022042310D8B4DBEC66
:101160000CF0000E216E000E206E000E276E010E98
:101170004AD023502210D8A411D02450040A25109C
:10118000D8B407D0000E1F6E040E1E6E35EC0BF0A7
:1011900005D022042310D8B4DBEC0CF0000E216E35
:1011A000000E206E000E276E030E2DD0235022104D
:1011B000D8A4D7D72450040A2510D8B407D0000EDD
:1011C0001F6E040E1E6E35EC0BF0CBD722042310DD
:1011D000D8B4DBEC0CF0C5D723502210D8A4DED74E
:1011E0002450040A2510D8B407D0000E1F6E040E38
:1011F0001E6E35EC0BF0D2D722042310D8A4CED724
:10120000DBEC0CF0CBD7266E5CD123502210D8A497
:10121000C5D72450040A2510D8B407D0000E1F6E7D
:10122000040E1E6E35EC0BF0B9D722042310D8B48F
:10123000DBEC0CF0B3D723502210D8A411D02450EB
:10124000040A2510D8B407D0000E1F6E040E1E6EBF
:1012500035EC0BF005D022042310D8B4DBEC0CF0F5
:10126000000E276E010E266E45D02450050A25106B
:10127000D8B427D1000E1F6E050E1E6E35EC0BF094
:1012800020D12450020A2510D8B41BD1000E1F6EA5
:10129000020E1E6E35EC0BF014D12450060A2510F8
:1012A000D8B40FD1000E1F6E060E1E6E35EC0BF07B
:1012B00008D124042510D8B404D1000E1F6E010EED
:1012C0001E6E35EC0BF0FDD02450060A2510D8B464
:1012D00011D0000E1F6E060E1E6E35EC0BF00AD0FC
:1012E00024042510D8B406D0000E1F6E010E1E6E09
:1012F00035EC0BF0000E216E000E206EE2D02A04B9
:101300002B10D8B40DD02450040A2510D8B406D020
:10131000000E1F6E040E1E6E35EC0BF042EC0FF04B
:101320002150800AF36E820EF35CEF0ED8B4205C7D
:10133000D8B019D026042710D8A406D0000E1F6EEE
:10134000000E1E6E35EC0BF02650030A2710D8A4B1
:1013500006D0000E1F6E070E1E6E35EC0BF0000E51
:10136000276E020E266E2A042B10D8A4AAD08BEC6E
:101370000FF0B90E0F5C880E1058D8A0A2D0000E46
:101380001F6E000E1E6E35EC0BF0F2A4FED78BEC38
:101390000FF0200E0F5C4E0E1058D8A0F6D7ABEC15
:1013A0000FF08FD02A042B10D8A426D02650020A82
:1013B0002710D8B421D08BEC0FF0200E0F5C4E0E0E
:1013C0001058D8B019D026042710D8A406D0000E83
:1013D0001F6E000E1E6E35EC0BF02650030A271010
:1013E000D8A406D0000E1F6E070E1E6E35EC0BF053
:1013F000000E276E020E266E2A042B10D8B40DD0D4
:101400002450040A2510D8B406D0000E1F6E040E16
:101410001E6E35EC0BF042EC0FF02A042B10D8A412
:101420000FD08BEC0FF0980E0F5C3D0E1058D8A02B
:1014300007D0B4EC0EF002D0BDEC0FF02CB4FCD70A
:10144000BDEC0FF03ED02C501F0B000AD8B457D77C
:10145000010AD8B422D7030AD8B407D7010AD8B4EE
:1014600033D7070AD8B41DD6010AD8B44ED6030A1A
:10147000D8B43FD6010AD8B47CD60F0AD8B401D765
:10148000040AD8B42AD6030AD8B4A6D61F0AD8B4F8
:1014900010D7010AD8B486D7050AD8B40ED6030AE5
:1014A000D8B4B3D60F0AD8B41BD7040AD8B444D6DC
:1014B000010AD8B4C0D6030AD8B478D6010AD8B481
:1014C0009BD72150800AF36E930EF35C890ED8B43B
:1014D000205CD8B002D0204A212A12001A6E010ED8
:1014E0001B6E1550020D010EF324F66E100EF42043
:1014F000F76EF86A000EF8220900F5CF18F009001F
:10150000F5CF19F0165018241C6E175019201D6EB7
:101510001D50800AF36E800EF35C000ED8B41C5C84
:10152000D8B006D0000E1B6E1C6C1D1ED8B01D2A34
:101530001D50800A7D0F210ED8B41C5CD8A004D0A9
:10154000030E1D6E200E1C6E1A6616D01CC00FF006
:101550001DC010F0AFEC0DF01B6602D0829001D0E0
:10156000828082B002D0010E01D0000E186E1846A3
:1015700084501818FD0B14D01CC00FF01DC010F0C3
:10158000CCEC0DF01B6602D0829A01D0828A82BA1E
:1015900002D0010E01D0000E186E84501818FE0BF8
:1015A0001818846E1200870EC7EC0EF01150285CDC
:1015B00012502958D8B002D0010E01D0000E146E7E
:1015C000143A2C501418EF0B14182C6E8F0EC7EC15
:1015D0000EF01150285C12502958D8B002D0010EDC
:1015E00001D0000E146E1446144614462C501418E4
:1015F000F70B14182C6E970EC7EC0EF01150285CE8
:1016000012502958D8B002D0010E01D0000E146E2D
:10161000144614462C501418FB0B14182C6E9F0EF5
:10162000C7EC0EF01150285C12502958D8B002D0E7
:10163000010E01D0000E146E14462C501418FD0B30
:1016400014182C6EA70EC7EC0EF01150285C125027
:101650002958D8B002D0010E01D0000E146E2C50C3
:101660001418FE0B14182C6E12001F501E10D8A454
:1016700006D0A1EC0EF0000E256E000E246E1E04A6
:101680001F10D8A406D07BEC0EF0000E256E010EC4
:10169000246E1E50020A1F10D8A406D042EC0EF091
:1016A000000E256E020E246E1E50030A1F10D8A4D1
:1016B00006D0B4EC0EF0000E256E030E246E1E5004
:1016C000040A1F10D8A406D055EC0EF0000E256EAB
:1016D000040E246E1E50050A1F10D8A406D02FEC4D
:1016E0000EF0000E256E050E246E1E50060A1F1009
:1016F000D8A406D068EC0EF0000E256E060E246EFF
:101700001E50070A1F10D8A406D08EEC0EF0000E53
:10171000256E070E246E1200000E156E000E166E5A
:10172000000E176E000E186E000E196E000E1A6E67
:10173000000E1B6E000E1C6ECCEC0FF0100E116E26
:10174000780E106E06EC0EF083908382838483867D
:1017500083882CD004001A50750A300ED8B419189A
:101760001B101C10D8A411D0000E196E000E1A6E9A
:10177000000E1B6E000E1C6E010E1526000E1622AA
:1017800017221822839083820BD01A503A0A980E9F
:10179000D8B419181B101C10D8A402D083808392CF
:1017A000010E1926000E1A221B221C220A0E155C9D
:1017B000000E1658000E1758000E1858D8B0120018
:1017C000C9D72C902C922C942C962C98D08EF29ECB
:1017D000F29C1BEC0EF0D2EC0FF0000E106E100E0F
:1017E0000F6E3C0EA7EC0CF0DBEC0FF0000E836EDE
:1017F0008FEC0DF0A4EC0FF0D8EC0FF0D5EC0FF05F
:10180000CFEC0FF04EEC0FF00C0E0F6E0A0E106EB8
:10181000A70E0AEC0DF0829A849082908492060EB4
:1018200034EC0FF0C70E94EC0FF0C70EE9EC0DF09E
:10183000000E106E000E0F6ECCEC0DF0000E106E50
:10184000000E0F6EAFEC0DF0000E296E780E286EB4
:1018500012002CB802D0010E01D0000E0F6E835082
:101860000F18FE0B0F18836E2CB602D0010E01D09C
:10187000000E0F6E0F4683500F18FD0B0F18836E6E
:101880002CB402D0010E01D0000E0F6E0F460F4691
:1018900083500F18FB0B0F18836E2CB202D0010E71
:1018A00001D0000E0F6E0F460F460F4683500F18E3
:1018B000F70B0F18836E2CB002D0010E01D0000E72
:1018C0000F6E0F3A83500F18EF0B0F18836E120034
:1018D0000600EACF04F0E1CF05F0E2CF06F0D9CF61
:1018E00007F0DACF08F0F3CF09F0F4CF0AF0F6CF23
:1018F0000BF0F7CF0CF0F8CF0DF0F5CF0EF0A19470
:101900009268936894689568030E966E010E2D6E2A
:10191000A094D2980EC0F5FF0DC0F8FF0CC0F7FFE1
:101920000BC0F6FF0AC0F4FF09C0F3FF08C0DAFFDE
:1019300007C0D9FF06C0E2FF05C0E1FF04C0EAFF0F
:1019400003C0E9FF02C0FBFF01C0FAFF1100146EE3
:10195000000EAC6E000EAB6E14B0AC8814A202D0B8
:10196000AC8CAB8C14B4AC8E14A602D0AB8801D076
:10197000AB8A14B8AC849E9814BAAB8614AC02D06F
:101980009D8A01D09D9A9E9A14AE02D09D8801D066
:101990009D980FC0AFFF10C011F011C012F0136A74
:1019A0001250B06EAC8AAB8E949C948EACB8ACBE28
:1019B00001D0948C12002CB82CB614D02CA412D0C8
:1019C000000E1F6E010E1E6E35EC0BF02CB4FED710
:1019D000000E1F6E010E1E6E35EC0BF02CA4FED710
:1019E000C7EC0FF02CB82CB614D02CA412D0000EDB
:1019F0001F6E060E1E6E35EC0BF02CB4FED7000EDB
:101A00001F6E060E1E6E35EC0BF02CA4FED7C7EC35
:101A10000FF01200136E000EC26E000EC06ED89052
:101A20000F303C0BC26E0FC011F0113AF00E1116C0
:101A3000300E111610500F0B1110C16E13C011F0A3
:101A4000D8901136D8901136380E111613C012F0F6
:101A5000123A0F0E1216070E12161350800B1210A8
:101A60001110C06E0FAE03D09E9C9D8CF28CC28074
:101A70001200000E0F6E000E106E000E116E000EA2
:101A8000126E04001050750A300ED8B40F181110E1
:101A90001210D8A40BD0000E0F6E000E106E000EA8
:101AA000116E000E126E839083820BD010503A0A92
:101AB000980ED8B40F1811101210D8A402D0838039
:101AC0008392010E0F26000E102211221222D9D766
:101AD000E1EC0BF0100E116E0F0E106E06EC0EF016
:101AE0000400000E296E8C0E286E060EE9EC0EF036
:101AF000000E276E020E266E000E216E000E206E66
:101B0000D3EC0AF029EC0CF040EC08F00400E0EC17
:101B10000FF00009D8B4F4D7F9EC0EF0F1D76FEC60
:101B20000FF00009D8B403D08CEC0BF017D09DEC6B
:101B30000FF00009D8B403D0D9EC0EF00FD065EC4B
:101B40000FF00009D8B403D018EC0FF007D0FCAEAA
:101B500003D009EC0FF002D026EC0FF012000FC0FA
:101B600011F010C012F0060ED89011361236E82E81
:101B7000FBD711C013F012C014F014C0BBFF13C088
:101B800011F0D8901132D8901132300E1116BA508F
:101B9000CF0B1110BA6E12000FC011F010C012F06E
:101BA000060ED89011361236E82EFBD711C013F06E
:101BB00012C014F014C0BEFF13C011F0D89011323F
:101BC000D8901132300E1116BD50CF0B1110BD6ED2
:101BD0001200106E0C0EBA6E050EF66E000EF76E49
:101BE000300EF86E0800F5CF0FF00FA002D011688C
:101BF00002D0000E116E1150D8B402D0949201D0D0
:101C00009396CA9410C0CBFFCA841200000E136EC4
:101C1000120E126E03D01450B7EC0FF010C0F6FF86
:101C200011C0F7FF104A112AF86A0800F5CF14F026
:101C30001466F1D71200D38CD38AD3889B8C000E04
:101C4000106E000E0F6E1050800A7F0FF40ED8B485
:101C50000F5CD8B003D00F4A102AF5D71200040E3B
:101C6000156E000E176E000E166E000E6EEC0AF06A
:101C7000030E156E000E176E000E166E010E6EEC42
:101C80000AF01200030E156E000E176E000E166E8F
:101C9000000E6EEC0AF0040E156E000E176E000EAC
:101CA000166E010E6EEC0AF01200040E156E000E98
:101CB000176E3C0E166E000E6EEC0AF0040E156EDA
:101CC000000E176E000E166E010E6EEC0AF012007A
:101CD000040E156E000E176E000E166E000E6EECE2
:101CE0000AF0020E156E000E176E000E166E010E33
:101CF0006EEC0AF01200020E156E000E176E000E4A
:101D0000166E000E6EEC0AF0040E156E000E176EC5
:101D1000000E166E010E6EEC0AF01200040E156E27
:101D2000000E176E000E166E000E6EEC0AF0020E1C
:101D3000156E000E176E000E166E010E6EEC0AF098
:101D40001200020E156E000E176E000E166E000EBB
:101D50006EEC0AF0040E156E000E176E000E166E75
:101D6000010E6EEC0AF01200030E156E000E176ED7
:101D7000000E166E000E6EEC0AF0030E156E000ECD
:101D8000176E000E166E010E6EEC0AF01200136E46
:101D900013505AEC0FF0DEEC0FF0B1EC0FF000092D
:101DA000D8A4FBD7C2EC0FF00FC011F010C012F096
:101DB0001200CCEC0FF0100E116E720E106E06ECCD
:101DC0000EF08380838283848386839839EC0DF0C0
:101DD00012000F6E0F507F0BD56E000ED76E000EE7
:101DE000D66EF2940FAE02D0F28A01D0F29AD58E5E
:101DF0001200100E116E6B0E106E06EC0EF0DBEC86
:101E00000FF08390838283848396838839EC0DF06E
:101E10001200FC9E100E116E590E106E06EC0EF0A4
:101E20008390838283948386839839EC0DF012002B
:101E3000100E116E620E106E06EC0EF0839083820F
:101E400083948386838839EC0DF01200100E116E96
:101E50004F0E106E06EC0EF083908382839483966F
:101E6000839839EC0DF012000F6E0F50FB0BCA6E09
:101E7000000ECC6E9E920FAE02D09D8201D09D923C
:101E8000CA841200F294000E106E000E0F6E82ECE7
:101E90000FF0000E2B6E010E2A6E1200D08ED2882B
:101EA000A284D29ED286D284D282D290A194A084DF
:101EB000F28E1200106EC2CF0FF0C30E0F16D89024
:101EC00010303C0B0F10C26E1200D0B2D0A405D05F
:101ED000D0B0D0B602D0010E01D0000E1200D0A2B8
:101EE000D0A405D0D0A0D0A602D0010E01D0000E03
:101EF000120000EE20F00E0EEE6AE806FDE1000191
:101F000068EF0DF00FC011F010C012F012C0D7FF33
:101F100011C0D6FF1200D6CF11F0D7CF12F011C0EA
:101F20000FF012C010F012000F6E0C0EBD12949440
:101F3000CA940FC0CBFFCA841200D0A0D0A202D096
:101F4000010E01D0000E12009490949294949496F5
:101F50009498949A1200F294000E2B6E000E2A6E42
:101F60001200C2A202D0010E01D0000E12000F6EAC
:101F70009EA8FED70FC0ADFF1200D3EC0AF029ECEB
:101F80000CF01200C450106EC3500F6E1200000E01
:101F9000236E000E226E1200D082D0801200000E3E
:101FA000966E1200949C948E1200C00E936E1200D6
:101FB000EF0E926E1200600E956E1200C282120039
:041FC0002D5012008E
:020000040020DA
:08000000FFFFFFFFFFFFFFFF00
:020000040030CA
:0E000000FF080306FF0381FF0FC00FE00F4053
:00000001FF
