:040000000CEF00F011
:10000800FACF01F0FBCF02F0E9CF03F041ED0CF09D
:0400180052EF0FF0A4
:1010000000E0FC2BFD76FD00008A02D50220030AD9
:101010000D4B77616E746C656E20415053433132D5
:1010200039392073696D706C65206375727665203F
:10103000666F6C6C6F776572202D2D2077697468F0
:10104000206572726F7220636F6465730A0D0020F1
:101050003C72657365743E20003C53544B46554CBE
:101060003E003C57445420544F3E005C3C4C564498
:101070003E003C424F523E003C504F523E0000006A
:101080002C501F0B0009D8B4C7D12C501F0B1F0ABE
:10109000D8B4C2D12B502A10D8B4BED184EC0FF0F2
:1010A000BBD12450040A2510D8B4EED1000E1F6E17
:1010B000040E1E6E0EEC0BF0E7D123502210D8A4C4
:1010C000E3D12450040A2510D8B4DED1000E1F6EDF
:1010D000040E1E6E0EEC0BF0D7D12450040A25101E
:1010E000D8B4D2D1000E1F6E040E1E6E0EEC0BF0A3
:1010F000CBD12450040A2510D8B4C6D1000E1F6EDF
:10110000040E1E6E0EEC0BF0BFD123502210D8A49B
:10111000BBD12450040A2510D8B407D0000E1F6E8E
:10112000040E1E6E0EEC0BF0AFD122042310D8A4D7
:10113000ABD1B4EC0CF0A8D123502210D8A411D01C
:101140002450040A2510D8B407D0000E1F6E040ED8
:101150001E6E0EEC0BF005D022042310D8B4B4ECB4
:101160000CF0000E216E000E206E000E276E010E98
:101170004AD023502210D8A411D02450040A25109C
:10118000D8B407D0000E1F6E040E1E6E0EEC0BF0CE
:1011900005D022042310D8B4B4EC0CF0000E216E5C
:1011A000000E206E000E276E030E2DD0235022104D
:1011B000D8A4D7D72450040A2510D8B407D0000EDD
:1011C0001F6E040E1E6E0EEC0BF0CBD72204231004
:1011D000D8B4B4EC0CF0C5D723502210D8A4DED775
:1011E0002450040A2510D8B407D0000E1F6E040E38
:1011F0001E6E0EEC0BF0D2D722042310D8A4CED74B
:10120000B4EC0CF0CBD7266E3FD123502210D8A4DB
:10121000C5D72450040A2510D8B407D0000E1F6E7D
:10122000040E1E6E0EEC0BF0B9D722042310D8B4B6
:10123000B4EC0CF0B3D723502210D8A411D0245012
:10124000040A2510D8B407D0000E1F6E040E1E6EBF
:101250000EEC0BF005D022042310D8B4B4EC0CF043
:10126000000E276E010E266E000E216E000E206EFF
:101270000BD12450050A2510D8B406D1000E1F6EDC
:10128000050E1E6E0EEC0BF0FFD02450020A251046
:10129000D8B4FAD0000E1F6E020E1E6E0EEC0BF0CC
:1012A000F3D02450060A2510D8B4EED0000E1F6EDD
:1012B000060E1E6E0EEC0BF0E7D024042510D8B4F9
:1012C000E3D0000E1F6E010E1E6E0EEC0BF0DCD094
:1012D0002A042B10D8B40DD02450040A2510D8B4F9
:1012E00006D0000E1F6E040E1E6E0EEC0BF01BECF3
:1012F0000FF02150800AF36E830EF35CE90ED8B430
:10130000205CD8B019D026042710D8A406D0000E2F
:101310001F6E000E1E6E0EEC0BF02650030A2710F7
:10132000D8A406D0000E1F6E070E1E6E0EEC0BF03A
:10133000000E276E020E266E2A042B10D8A4A4D00D
:1013400064EC0FF0B90E0F5C880E1058D8A09CD03A
:10135000000E1F6E000E1E6E0EEC0BF0F2A4FED7F8
:1013600064EC0FF0C80E0F5C320E1058D8A0F6D700
:1013700084EC0FF089D02A042B10D8A426D0265054
:10138000020A2710D8B421D064EC0FF0200E0F5CB5
:101390004E0E1058D8B019D026042710D8A406D065
:1013A000000E1F6E000E1E6E0EEC0BF02650030A90
:1013B0002710D8A406D0000E1F6E070E1E6E0EEC6E
:1013C0000BF0000E276E020E266E2A042B10D8B4E6
:1013D0000DD02450040A2510D8B406D0000E1F6E7C
:1013E000040E1E6E0EEC0BF01BEC0FF02A042B10FB
:1013F000D8A40FD064EC0FF0980E0F5C3D0E10587F
:10140000D8A007D08DEC0EF002D096EC0FF02CB4E3
:10141000FCD796EC0FF038D02C501F0B000AD8B434
:1014200057D7010AD8B43DD7030AD8B422D7060A41
:10143000D8B437D6010AD8B468D6030AD8B459D676
:10144000010AD8B496D60F0AD8B41FD7040AD8B464
:1014500044D6030AD8B4C0D61F0AD8B42ED7010A7E
:10146000D8B489D7050AD8B428D6030AD8B4CDD6BB
:101470000B0AD8B461D6010AD8B4DDD6030AD8B4B1
:1014800095D6010AD8B4A1D7204A212A12001A6E93
:10149000010E1B6E1550020D010EF324F66E100E98
:1014A000F420F76EF86A000EF8220900F5CF18F064
:1014B0000900F5CF19F0165018241C6E175019208A
:1014C0001D6E1D50800AF36E800EF35C000ED8B4C2
:1014D0001C5CD8B006D0000E1B6E1C6C1D1ED8B054
:1014E0001D2A1D50800A7D0F210ED8B41C5CD8A087
:1014F00004D0030E1D6E200E1C6E1A6616D01CC082
:101500000FF01DC010F088EC0DF01B6602D0829029
:1015100001D0828082B002D0010E01D0000E186E80
:10152000184684501818FD0B14D01CC00FF01DC0B5
:1015300010F0A5EC0DF01B6602D0829A01D0828AD1
:1015400082BA02D0010E01D0000E186E8450181815
:10155000FE0B1818846E1200870EA0EC0EF01150CE
:10156000285C12502958D8B002D0010E01D0000ECC
:10157000146E143A2C501418EF0B14182C6E8F0E96
:10158000A0EC0EF01150285C12502958D8B002D0AF
:10159000010E01D0000E146E1446144614462C5051
:1015A0001418F70B14182C6E970EA0EC0EF01150B7
:1015B000285C12502958D8B002D0010E01D0000E7C
:1015C000146E144614462C501418FB0B14182C6E71
:1015D0009F0EA0EC0EF01150285C12502958D8B084
:1015E00002D0010E01D0000E146E14462C501418B7
:1015F000FD0B14182C6EA70EA0EC0EF01150285CF9
:1016000012502958D8B002D0010E01D0000E146E2D
:101610002C501418FE0B14182C6E12001F501E10A4
:10162000D8A406D07AEC0EF0000E256E000E246EC3
:101630001E041F10D8A406D054EC0EF0000E256E28
:10164000010E246E1E50020A1F10D8A406D01BECF7
:101650000EF0000E256E020E246E1E50030A1F109F
:10166000D8A406D08DEC0EF0000E256E030E246E6D
:101670001E50040A1F10D8A406D02EEC0EF0000E47
:10168000256E040E246E1E50050A1F10D8A406D025
:1016900008EC0EF0000E256E050E246E1E50060A94
:1016A0001F10D8A406D041EC0EF0000E256E060ED9
:1016B000246E1E50070A1F10D8A406D067EC0EF047
:1016C000000E256E070E246E1200000E156E000E21
:1016D000166E000E176E000E186E000E196E000EBC
:1016E0001A6E000E1B6E000E1C6EA5EC0FF0100E95
:1016F000116E780E106EDFEC0DF083908382838480
:10170000838683882CD004001A50750A300ED8B412
:1017100019181B101C10D8A411D0000E196E000E41
:101720001A6E000E1B6E000E1C6E010E1526000EAA
:10173000162217221822839083820BD01A503A0A5D
:10174000980ED8B419181B101C10D8A402D083808E
:101750008392010E1926000E1A221B221C220A0E49
:10176000155C000E1658000E1758000E1858D8B009
:101770001200C9D72C902C922C942C962C98D08E99
:10178000F29EF29CF4EC0DF0ABEC0FF0000E106E3C
:10179000100E0F6E3C0E80EC0CF0B4EC0FF0000E4F
:1017A000836E68EC0DF07DEC0FF0B1EC0FF0AEEC59
:1017B0000FF0A8EC0FF027EC0FF00C0E0F6E0A0ED6
:1017C000106EA70EE3EC0CF0829A849082908492C3
:1017D000060E0DEC0FF0C70E6DEC0FF0C70EC2EC4D
:1017E0000DF0000E106E000E0F6EA5EC0DF0000E49
:1017F000106E000E0F6E88EC0DF0000E296E780E44
:10180000286E12002CB802D0010E01D0000E0F6E0F
:1018100083500F18FE0B0F18836E2CB602D0010EEA
:1018200001D0000E0F6E0F4683500F18FD0B0F18DE
:10183000836E2CB402D0010E01D0000E0F6E0F4645
:101840000F4683500F18FB0B0F18836E2CB202D07B
:10185000010E01D0000E0F6E0F460F460F4683504B
:101860000F18F70B0F18836E2CB002D0010E01D0A9
:10187000000E0F6E0F3A83500F18EF0B0F18836E88
:1018800012000600EACF04F0E1CF05F0E2CF06F047
:10189000D9CF07F0DACF08F0F3CF09F0F4CF0AF090
:1018A000F6CF0BF0F7CF0CF0F8CF0DF0F5CF0EF030
:1018B000A1949268936894689568030E966E010EE1
:1018C0002D6EA094D2980EC0F5FF0DC0F8FF0CC08D
:1018D000F7FF0BC0F6FF0AC0F4FF09C0F3FF08C012
:1018E000DAFF07C0D9FF06C0E2FF05C0E1FF04C070
:1018F000EAFF03C0E9FF02C0FBFF01C0FAFF1100CD
:10190000146E000EAC6E000EAB6E14B0AC8814A258
:1019100002D0AC8CAB8C14B4AC8E14A602D0AB88C5
:1019200001D0AB8A14B8AC849E9814BAAB8614ACC0
:1019300002D09D8A01D09D9A9E9A14AE02D09D88B5
:1019400001D09D980FC0AFFF10C011F011C012F070
:10195000136A1250B06EAC8AAB8E949C948EACB865
:10196000ACBE01D0948C12002CB82CB614D02CA490
:1019700012D0000E1F6E010E1E6E0EEC0BF02CB47A
:10198000FED7000E1F6E010E1E6E0EEC0BF02CA487
:10199000FED7A0EC0FF02CB82CB614D02CA412D08B
:1019A000000E1F6E060E1E6E0EEC0BF02CB4FED752
:1019B000000E1F6E060E1E6E0EEC0BF02CA4FED752
:1019C000A0EC0FF01200136E000EC26E000EC06E7F
:1019D000D8900F303C0BC26E0FC011F0113AF00ED0
:1019E0001116300E111610500F0B1110C16E13C0CE
:1019F00011F0D8901136D8901136380E111613C048
:101A000012F0123A0F0E1216070E12161350800B18
:101A100012101110C06E0FAE03D09E9C9D8CF28CE4
:101A2000C2801200000E0F6E000E106E000E116EBE
:101A3000000E126E04001050750A300ED8B40F1844
:101A400011101210D8A40BD0000E0F6E000E106EE5
:101A5000000E116E000E126E839083820BD0105018
:101A60003A0A980ED8B40F1811101210D8A402D048
:101A700083808392010E0F26000E10221122122263
:101A8000D9D7BAEC0BF0100E116E0F0E106EDFEC02
:101A90000DF00400000E296EF00E286E060EC2EC4A
:101AA0000EF0000E276E020E266E000E216E000E46
:101AB000206EACEC0AF002EC0CF040EC08F00400F4
:101AC000B9EC0FF00009D8B4F4D7D2EC0EF0F1D78E
:101AD00048EC0FF00009D8B403D065EC0BF017D038
:101AE00076EC0FF00009D8B403D0B2EC0EF00FD0B2
:101AF0003EEC0FF00009D8B403D0F1EC0EF007D0A3
:101B0000FCAE03D0E2EC0EF002D0FFEC0EF01200BF
:101B10000FC011F010C012F0060ED8901136123618
:101B2000E82EFBD711C013F012C014F014C0BBFF95
:101B300013C011F0D8901132D8901132300E111616
:101B4000BA50CF0B1110BA6E12000FC011F010C0B6
:101B500012F0060ED89011361236E82EFBD711C0BF
:101B600013F012C014F014C0BEFF13C011F0D890CF
:101B70001132D8901132300E1116BD50CF0B11100A
:101B8000BD6E1200106E0C0EBA6E050EF66E000ED3
:101B9000F76E300EF86E0800F5CF0FF00FA002D0F0
:101BA000116802D0000E116E1150D8B402D0949278
:101BB00001D09396CA9410C0CBFFCA841200000EC5
:101BC000136E120E126E03D0145090EC0FF010C072
:101BD000F6FF11C0F7FF104A112AF86A0800F5CF86
:101BE00014F01466F1D71200D38CD38AD3889B8C5F
:101BF000000E106E000E0F6E1050800A7F0FF40E54
:101C0000D8B40F5CD8B003D00F4A102AF5D7120011
:101C1000040E156E000E176E000E166E000E47ECC9
:101C20000AF0030E156E000E176E000E166E010EF2
:101C300047EC0AF01200030E156E000E176E000E30
:101C4000166E000E47EC0AF0040E156E000E176EAD
:101C5000000E166E010E47EC0AF01200040E156E0F
:101C6000000E176E4B0E166E000E47EC0AF0040EB7
:101C7000156E000E176E000E166E010E47EC0AF080
:101C80001200040E156E000E176E000E166E000E7A
:101C900047EC0AF0020E156E000E176E000E166E5F
:101CA000010E47EC0AF01200020E156E000E176EC0
:101CB000000E166E000E47EC0AF0040E156E000EB4
:101CC000176E000E166E010E47EC0AF01200040E9D
:101CD000156E000E176E000E166E000E47EC0AF021
:101CE000020E156E000E176E000E166E010E47ECFA
:101CF0000AF01200020E156E000E176E000E166E20
:101D0000000E47EC0AF0040E156E000E176E000E62
:101D1000166E010E47EC0AF01200030E156E000E4F
:101D2000176E000E166E000E47EC0AF0030E156ECD
:101D3000000E176E000E166E010E47EC0AF0120030
:101D4000136E135033EC0FF0B7EC0FF08AEC0FF07A
:101D50000009D8A4FBD79BEC0FF00FC011F010C006
:101D600012F01200A5EC0FF0100E116E720E106E34
:101D7000DFEC0DF08380838283848386839812EC6A
:101D80000DF012000F6E0F507F0BD56E000ED76E48
:101D9000000ED66EF2940FAE02D0F28A01D0F29A03
:101DA000D58E1200100E116E6B0E106EDFEC0DF062
:101DB000B4EC0FF08390838283848396838812EC43
:101DC0000DF01200FC9E100E116E590E106EDFEC1D
:101DD0000DF08390838283948386839812EC0DF0B8
:101DE0001200100E116E620E106EDFEC0DF083907B
:101DF000838283948386838812EC0DF01200100E88
:101E0000116E4F0E106EDFEC0DF083908382839481
:101E10008396839812EC0DF012000F6E0F50FB0B9F
:101E2000CA6E000ECC6E9E920FAE02D09D8201D083
:101E30009D92CA841200F294000E106E000E0F6E76
:101E40005BEC0FF0000E2B6E010E2A6E1200D08E8E
:101E5000D288A284D29ED286D284D282D290A194F9
:101E6000A084F28E1200106EC2CF0FF0C30E0F16B8
:101E7000D89010303C0B0F10C26E1200D0B2D0A41C
:101E800005D0D0B0D0B602D0010E01D0000E1200A5
:101E9000D0A2D0A405D0D0A0D0A602D0010E01D0EF
:101EA000000E120000EE20F00E0EEE6AE806FDE1D4
:101EB000000141EF0DF00FC011F010C012F012C080
:101EC000D7FF11C0D6FF1200D6CF11F0D7CF12F036
:101ED00011C00FF012C010F012000F6E0C0EBD12E8
:101EE0009494CA940FC0CBFFCA841200D0A0D0A291
:101EF00002D0010E01D0000E12009490949294949E
:101F000094969498949A1200F294000E2B6E000E00
:101F10002A6E1200C2A202D0010E01D0000E1200E1
:101F20000F6E9EA8FED70FC0ADFF1200ACEC0AF0FA
:101F300002EC0CF01200C450106EC3500F6E120071
:101F4000000E236E000E226E1200D082D08012008E
:101F5000000E966E1200949C948E1200C00E936E2A
:101F60001200EF0E926E1200600E956E1200C28289
:061F700012002D501200CA
:020000040020DA
:08000000FFFFFFFFFFFFFFFF00
:020000040030CA
:0E000000FF080306FF0381FF0FC00FE00F4053
:00000001FF
